{
  "contractName": "MyContract",
  "abi": [
    {
      "anonymous": false,
      "inputs": [
        {
          "indexed": true,
          "internalType": "address",
          "name": "user",
          "type": "address"
        },
        {
          "indexed": false,
          "internalType": "uint256",
          "name": "value",
          "type": "uint256"
        }
      ],
      "name": "GMPValueUpdated",
      "type": "event"
    },
    {
      "anonymous": false,
      "inputs": [
        {
          "indexed": true,
          "internalType": "address",
          "name": "user",
          "type": "address"
        },
        {
          "indexed": false,
          "internalType": "string",
          "name": "intent",
          "type": "string"
        }
      ],
      "name": "IntentUpdated",
      "type": "event"
    },
    {
      "anonymous": false,
      "inputs": [
        {
          "indexed": true,
          "internalType": "address",
          "name": "user",
          "type": "address"
        },
        {
          "indexed": false,
          "internalType": "string",
          "name": "keychain",
          "type": "string"
        }
      ],
      "name": "KeychainUpdated",
      "type": "event"
    },
    {
      "inputs": [
        {
          "internalType": "string",
          "name": "_keychain",
          "type": "string"
        }
      ],
      "name": "setKeychain",
      "outputs": [],
      "stateMutability": "nonpayable",
      "type": "function"
    },
    {
      "inputs": [
        {
          "internalType": "address",
          "name": "_user",
          "type": "address"
        }
      ],
      "name": "getKeychain",
      "outputs": [
        {
          "internalType": "string",
          "name": "",
          "type": "string"
        }
      ],
      "stateMutability": "view",
      "type": "function"
    },
    {
      "inputs": [
        {
          "internalType": "uint256",
          "name": "_value",
          "type": "uint256"
        }
      ],
      "name": "setGMPValue",
      "outputs": [],
      "stateMutability": "nonpayable",
      "type": "function"
    },
    {
      "inputs": [
        {
          "internalType": "address",
          "name": "_user",
          "type": "address"
        }
      ],
      "name": "getGMPValue",
      "outputs": [
        {
          "internalType": "uint256",
          "name": "",
          "type": "uint256"
        }
      ],
      "stateMutability": "view",
      "type": "function"
    },
    {
      "inputs": [
        {
          "internalType": "string",
          "name": "_intent",
          "type": "string"
        }
      ],
      "name": "setIntent",
      "outputs": [],
      "stateMutability": "nonpayable",
      "type": "function"
    },
    {
      "inputs": [
        {
          "internalType": "address",
          "name": "_user",
          "type": "address"
        }
      ],
      "name": "getIntent",
      "outputs": [
        {
          "internalType": "string",
          "name": "",
          "type": "string"
        }
      ],
      "stateMutability": "view",
      "type": "function"
    }
  ],
  "bytecode": "0x608060405234801561001057600080fd5b5061054e806100206000396000f3fe608060405234801561001057600080fd5b50600436106100625760003560e01c806322e71688146100675780632fed86ee1461007c5780634ed238b3146100a55780636e6a6e8f146100c55780638b8d655d146100d85780639bf00b15146100eb575b600080fd5b61007a610075366004610453565b6100fe565b005b61008f61008a366004610384565b61014b565b60405161009c919061046b565b60405180910390f35b6100b86100b3366004610384565b6101f7565b60405161009c91906104be565b61008f6100d3366004610384565b610212565b61007a6100e63660046103b2565b610239565b61007a6100f93660046103b2565b610291565b3360008181526001602052604090819020839055517fbd832734ed0b84c0113efa073345f4fd43cb90fa0f18177535b9a751bd721cd7906101409084906104be565b60405180910390a250565b6001600160a01b0381166000908152600260205260409020805460609190610172906104c7565b80601f016020809104026020016040519081016040528092919081815260200182805461019e906104c7565b80156101eb5780601f106101c0576101008083540402835291602001916101eb565b820191906000526020600020905b8154815290600101906020018083116101ce57829003601f168201915b50505050509050919050565b6001600160a01b031660009081526001602052604090205490565b6001600160a01b0381166000908152602081905260409020805460609190610172906104c7565b336000908152602081815260409091208251610257928401906102eb565b50336001600160a01b03167f38143114f607887d2f21b03f5e9c6ec0444bb9776192a0b444e8809d4674551482604051610140919061046b565b33600090815260026020908152604090912082516102b1928401906102eb565b50336001600160a01b03167f511a9340c7774962312ed17dd92a04d4555af5ba7d56b93e9e7bc7a7dbc7c18a82604051610140919061046b565b8280546102f7906104c7565b90600052602060002090601f016020900481019282610319576000855561035f565b82601f1061033257805160ff191683800117855561035f565b8280016001018555821561035f579182015b8281111561035f578251825591602001919060010190610344565b5061036b92915061036f565b5090565b5b8082111561036b5760008155600101610370565b600060208284031215610395578081fd5b81356001600160a01b03811681146103ab578182fd5b9392505050565b600060208083850312156103c4578182fd5b823567ffffffffffffffff808211156103db578384fd5b818501915085601f8301126103ee578384fd5b81358181111561040057610400610502565b604051601f8201601f191681018501838111828210171561042357610423610502565b6040528181528382018501881015610439578586fd5b818585018683013790810190930193909352509392505050565b600060208284031215610464578081fd5b5035919050565b6000602080835283518082850152825b818110156104975785810183015185820160400152820161047b565b818111156104a85783604083870101525b50601f01601f1916929092016040019392505050565b90815260200190565b6002810460018216806104db57607f821691505b602082108114156104fc57634e487b7160e01b600052602260045260246000fd5b50919050565b634e487b7160e01b600052604160045260246000fdfea26469706673582212209d408074a5b3f7775cdbebb8eeca05418a377e0db66211d4d763c02ba93d293664736f6c63430008000033",
  "immutableReferences": {},
  "source": "// SPDX-License-Identifier: MIT\npragma solidity ^0.8.0;\n\ncontract MyContract {\n    // State variables for Keychains, GMP, and Intents\n    mapping(address => string) private keychains;\n    mapping(address => uint256) private gmpValues;\n    mapping(address => string) private intents;\n\n    // Events for logging\n    event KeychainUpdated(address indexed user, string keychain);\n    event GMPValueUpdated(address indexed user, uint256 value);\n    event IntentUpdated(address indexed user, string intent);\n\n    // Function to set a keychain for a user\n    function setKeychain(string memory _keychain) public {\n        keychains[msg.sender] = _keychain;\n        emit KeychainUpdated(msg.sender, _keychain);\n    }\n\n    // Function to get the keychain of a user\n    function getKeychain(address _user) public view returns (string memory) {\n        return keychains[_user];\n    }\n\n    // Function to set GMP value for a user\n    function setGMPValue(uint256 _value) public {\n        gmpValues[msg.sender] = _value;\n        emit GMPValueUpdated(msg.sender, _value);\n    }\n\n    // Function to get GMP value of a user\n    function getGMPValue(address _user) public view returns (uint256) {\n        return gmpValues[_user];\n    }\n\n    // Function to set an intent for a user\n    function setIntent(string memory _intent) public {\n        intents[msg.sender] = _intent;\n        emit IntentUpdated(msg.sender, _intent);\n    }\n\n    // Function to get the intent of a user\n    function getIntent(address _user) public view returns (string memory) {\n        return intents[_user];\n    }\n}",
  "sourcePath": "/workspaces/warden/my-dapp-project/contracts/MyContract.sol",
  "compiler": {
    "name": "solc",
    "version": "0.8.0+commit.c7dfd78e.Emscripten.clang"
  },
  "schemaVersion": "3.4.16",
  "updatedAt": "2024-12-19T00:43:19.700Z",
  "devdoc": {
    "kind": "dev",
    "methods": {},
    "version": 1
  },
  "userdoc": {
    "kind": "user",
    "methods": {},
    "version": 1
  }
}